{
  "contractName": "Poll",
  "abi": [
    {
      "inputs": [],
      "payable": false,
      "stateMutability": "nonpayable",
      "type": "constructor"
    },
    {
      "constant": true,
      "inputs": [],
      "name": "owner",
      "outputs": [
        {
          "internalType": "address",
          "name": "",
          "type": "address"
        }
      ],
      "payable": false,
      "stateMutability": "view",
      "type": "function"
    },
    {
      "constant": false,
      "inputs": [
        {
          "internalType": "uint256",
          "name": "poll",
          "type": "uint256"
        },
        {
          "internalType": "bytes32",
          "name": "candidate",
          "type": "bytes32"
        }
      ],
      "name": "vote",
      "outputs": [],
      "payable": false,
      "stateMutability": "nonpayable",
      "type": "function"
    },
    {
      "constant": false,
      "inputs": [
        {
          "internalType": "bytes32[]",
          "name": "candidates",
          "type": "bytes32[]"
        }
      ],
      "name": "makePoll",
      "outputs": [],
      "payable": false,
      "stateMutability": "nonpayable",
      "type": "function"
    },
    {
      "constant": false,
      "inputs": [
        {
          "internalType": "uint256",
          "name": "poll",
          "type": "uint256"
        }
      ],
      "name": "closePoll",
      "outputs": [],
      "payable": false,
      "stateMutability": "nonpayable",
      "type": "function"
    },
    {
      "constant": true,
      "inputs": [
        {
          "internalType": "uint256",
          "name": "poll",
          "type": "uint256"
        }
      ],
      "name": "getResult",
      "outputs": [
        {
          "internalType": "bytes32[]",
          "name": "candidates",
          "type": "bytes32[]"
        },
        {
          "internalType": "uint8[]",
          "name": "result",
          "type": "uint8[]"
        }
      ],
      "payable": false,
      "stateMutability": "view",
      "type": "function"
    },
    {
      "constant": true,
      "inputs": [
        {
          "internalType": "uint256",
          "name": "poll",
          "type": "uint256"
        }
      ],
      "name": "getPollInfo",
      "outputs": [
        {
          "internalType": "bytes32[]",
          "name": "candidates",
          "type": "bytes32[]"
        },
        {
          "internalType": "bool",
          "name": "open",
          "type": "bool"
        }
      ],
      "payable": false,
      "stateMutability": "view",
      "type": "function"
    }
  ],
  "bytecode": "0x608060405234801561001057600080fd5b50336000806101000a81548173ffffffffffffffffffffffffffffffffffffffff021916908373ffffffffffffffffffffffffffffffffffffffff1602179055506109de806100606000396000f3fe608060405234801561001057600080fd5b50600436106100625760003560e01c806329b8f44a1461006757806368bb8bb6146100f55780638da5cb5b1461012d5780639534e63714610177578063995e4339146101a5578063d482135114610270575b600080fd5b6100936004803603602081101561007d57600080fd5b8101908080359060200190929190505050610328565b604051808060200183151515158152602001828103825284818151815260200191508051906020019060200280838360005b838110156100e05780820151818401526020810190506100c5565b50505050905001935050505060405180910390f35b61012b6004803603604081101561010b57600080fd5b810190808035906020019092919080359060200190929190505050610480565b005b6101356104ff565b604051808273ffffffffffffffffffffffffffffffffffffffff1673ffffffffffffffffffffffffffffffffffffffff16815260200191505060405180910390f35b6101a36004803603602081101561018d57600080fd5b8101908080359060200190929190505050610524565b005b6101d1600480360360208110156101bb57600080fd5b8101908080359060200190929190505050610618565b604051808060200180602001838103835285818151815260200191508051906020019060200280838360005b838110156102185780820151818401526020810190506101fd565b50505050905001838103825284818151815260200191508051906020019060200280838360005b8381101561025a57808201518184015260208101905061023f565b5050505090500194505050505060405180910390f35b6103266004803603602081101561028657600080fd5b81019080803590602001906401000000008111156102a357600080fd5b8201836020820111156102b557600080fd5b803590602001918460208302840111640100000000831117156102d757600080fd5b919080806020026020016040519081016040528093929190818152602001838360200280828437600081840152601f19601f8201169050808301925050505050505091929192905050506107cb565b005b606060008060009054906101000a900473ffffffffffffffffffffffffffffffffffffffff1673ffffffffffffffffffffffffffffffffffffffff163373ffffffffffffffffffffffffffffffffffffffff16146103ee576040517f08c379a000000000000000000000000000000000000000000000000000000000815260040180806020018281038252601d8152602001807f74686973206d6574686f6420697320666f72206f776e6572206f6e6c7900000081525060200191505060405180910390fd5b6003600084815260200190815260200160002060000180548060200260200160405190810160405280929190818152602001828054801561044e57602002820191906000526020600020905b81548152602001906001019080831161043a575b505050505091506003600084815260200190815260200160002060020160009054906101000a900460ff169050915091565b6000600360008481526020019081526020016000209050600115158160020160009054906101000a900460ff161515146104b957600080fd5b600181600101600084815260200190815260200160002060008282829054906101000a900460ff160192506101000a81548160ff021916908360ff160217905550505050565b6000809054906101000a900473ffffffffffffffffffffffffffffffffffffffff1681565b6000809054906101000a900473ffffffffffffffffffffffffffffffffffffffff1673ffffffffffffffffffffffffffffffffffffffff163373ffffffffffffffffffffffffffffffffffffffff16146105e6576040517f08c379a000000000000000000000000000000000000000000000000000000000815260040180806020018281038252601d8152602001807f74686973206d6574686f6420697320666f72206f776e6572206f6e6c7900000081525060200191505060405180910390fd5b60006003600083815260200190815260200160002060020160006101000a81548160ff02191690831515021790555050565b6060806000809054906101000a900473ffffffffffffffffffffffffffffffffffffffff1673ffffffffffffffffffffffffffffffffffffffff163373ffffffffffffffffffffffffffffffffffffffff16146106dd576040517f08c379a000000000000000000000000000000000000000000000000000000000815260040180806020018281038252601d8152602001807f74686973206d6574686f6420697320666f72206f776e6572206f6e6c7900000081525060200191505060405180910390fd5b600060036000858152602001908152602001600020905060005b816000018054905081101561076f5781600101600083600001838154811061071b57fe5b9060005260206000200154815260200190815260200160002060009054906101000a900460ff1683828151811061074e57fe5b602002602001019060ff16908160ff168152505080806001019150506106f7565b50806000018054806020026020016040519081016040528092919081815260200182805480156107be57602002820191906000526020600020905b8154815260200190600101908083116107aa575b5050505050925050915091565b6000809054906101000a900473ffffffffffffffffffffffffffffffffffffffff1673ffffffffffffffffffffffffffffffffffffffff163373ffffffffffffffffffffffffffffffffffffffff161461088d576040517f08c379a000000000000000000000000000000000000000000000000000000000815260040180806020018281038252601d8152602001807f74686973206d6574686f6420697320666f72206f776e6572206f6e6c7900000081525060200191505060405180910390fd5b61089561091b565b81816000018190525060018160200190151590811515815250508060036000600254815260200190815260200160002060008201518160000190805190602001906108e1929190610937565b5060208201518160020160006101000a81548160ff0219169083151502179055509050506002600081548092919060010191905055505050565b6040518060400160405280606081526020016000151581525090565b828054828255906000526020600020908101928215610973579160200282015b82811115610972578251825591602001919060010190610957565b5b5090506109809190610984565b5090565b6109a691905b808211156109a257600081600090555060010161098a565b5090565b9056fea265627a7a72315820dc629aafd3ade4541f0004190daa46eb3d40d47729225b56f9b0ee6df4cfd5ec64736f6c63430005100032",
  "source": "// SPDX-License-Identifier: MIT\r\npragma solidity >=0.4.22 <0.9.0;\r\n\r\ncontract Poll {\r\n    struct PollInfo {\r\n        bytes32[] candidates;\r\n        mapping(bytes32 => uint8) counts;\r\n        bool open;\r\n    }\r\n    address public owner;\r\n    uint256 private _head;\r\n    uint256 private _tail;\r\n    mapping(uint256 => PollInfo) _polls;\r\n\r\n    constructor() public {\r\n        owner = msg.sender;\r\n    }\r\n\r\n    function vote(uint256 poll, bytes32 candidate) public {\r\n        PollInfo storage p = _polls[poll];\r\n        require(p.open == true);\r\n        p.counts[candidate] += 1;\r\n    } // 유저가 vote 하는 함수\r\n\r\n    function makePoll(bytes32[] memory candidates) public {\r\n        require(msg.sender == owner, \"this method is for owner only\");\r\n        PollInfo memory p;\r\n        p.candidates = candidates;\r\n        p.open = true;\r\n        _polls[_tail] = p;\r\n        _tail++;\r\n    } // 새로운 여론조사를 만드는 함수\r\n\r\n    function closePoll(uint256 poll) public {\r\n        require(msg.sender == owner, \"this method is for owner only\");\r\n        _polls[poll].open = false;\r\n    } // 특정 조사를 close 하는 함수\r\n\r\n    function getResult(uint256 poll)\r\n        public\r\n        view\r\n        returns (bytes32[] memory candidates, uint8[] memory result)\r\n    {\r\n        require(msg.sender == owner, \"this method is for owner only\");\r\n        PollInfo storage p = _polls[poll];\r\n        for (uint256 i; i < p.candidates.length; i++) {\r\n            result[i] = p.counts[p.candidates[i]];\r\n        }\r\n        candidates = p.candidates;\r\n    } // 여론조사 리스트를 가져오는 함수\r\n\r\n    function getPollInfo(uint256 poll)\r\n        public\r\n        view\r\n        returns (bytes32[] memory candidates, bool open)\r\n    {\r\n        require(msg.sender == owner, \"this method is for owner only\");\r\n        candidates = _polls[poll].candidates;\r\n        open = _polls[poll].open;\r\n    } // 여론조사 정보를 가져오는 함수\r\n}\r\n",
  "sourcePath": "C:\\Users\\hayman42\\Desktop\\projects\\blockchain\\poll\\contract\\contracts\\Poll.sol",
  "compiler": {
    "name": "solc",
    "version": "0.5.16+commit.9c3226ce.Emscripten.clang"
  },
  "schemaVersion": "3.4.3",
  "updatedAt": "2021-09-21T10:47:14.396Z",
  "networkType": "ethereum",
  "devdoc": {
    "methods": {}
  },
  "userdoc": {
    "methods": {}
  }
}