{
  "contractName": "Poll",
  "abi": [
    {
      "inputs": [],
      "payable": false,
      "stateMutability": "nonpayable",
      "type": "constructor"
    },
    {
      "constant": true,
      "inputs": [],
      "name": "owner",
      "outputs": [
        {
          "internalType": "address",
          "name": "",
          "type": "address"
        }
      ],
      "payable": false,
      "stateMutability": "view",
      "type": "function"
    },
    {
      "constant": false,
      "inputs": [
        {
          "internalType": "uint256",
          "name": "poll",
          "type": "uint256"
        },
        {
          "internalType": "bytes32",
          "name": "name",
          "type": "bytes32"
        }
      ],
      "name": "vote",
      "outputs": [],
      "payable": false,
      "stateMutability": "nonpayable",
      "type": "function"
    },
    {
      "constant": false,
      "inputs": [
        {
          "internalType": "bytes32[]",
          "name": "candidates",
          "type": "bytes32[]"
        },
        {
          "internalType": "bytes32",
          "name": "content",
          "type": "bytes32"
        }
      ],
      "name": "makePoll",
      "outputs": [],
      "payable": false,
      "stateMutability": "nonpayable",
      "type": "function"
    },
    {
      "constant": false,
      "inputs": [
        {
          "internalType": "uint256",
          "name": "poll",
          "type": "uint256"
        },
        {
          "internalType": "bool",
          "name": "open",
          "type": "bool"
        }
      ],
      "name": "setPollStatus",
      "outputs": [],
      "payable": false,
      "stateMutability": "nonpayable",
      "type": "function"
    },
    {
      "constant": true,
      "inputs": [
        {
          "internalType": "uint256",
          "name": "poll",
          "type": "uint256"
        }
      ],
      "name": "getResult",
      "outputs": [
        {
          "internalType": "bytes32[]",
          "name": "candidates",
          "type": "bytes32[]"
        },
        {
          "internalType": "uint8[]",
          "name": "result",
          "type": "uint8[]"
        }
      ],
      "payable": false,
      "stateMutability": "view",
      "type": "function"
    },
    {
      "constant": true,
      "inputs": [
        {
          "internalType": "uint256",
          "name": "poll",
          "type": "uint256"
        }
      ],
      "name": "getPollInfo",
      "outputs": [
        {
          "internalType": "bytes32[]",
          "name": "candidates",
          "type": "bytes32[]"
        },
        {
          "internalType": "bytes32",
          "name": "content",
          "type": "bytes32"
        },
        {
          "internalType": "bool",
          "name": "open",
          "type": "bool"
        }
      ],
      "payable": false,
      "stateMutability": "view",
      "type": "function"
    },
    {
      "constant": true,
      "inputs": [],
      "name": "getPollNumber",
      "outputs": [
        {
          "internalType": "uint256",
          "name": "",
          "type": "uint256"
        }
      ],
      "payable": false,
      "stateMutability": "view",
      "type": "function"
    }
  ],
  "bytecode": "0x608060405234801561001057600080fd5b50336000806101000a81548173ffffffffffffffffffffffffffffffffffffffff021916908373ffffffffffffffffffffffffffffffffffffffff16021790555060006001819055506000600281905550610c95806100706000396000f3fe608060405234801561001057600080fd5b506004361061007d5760003560e01c806335c57b911161005b57806335c57b911461021357806368bb8bb6146102315780638da5cb5b14610269578063995e4339146102b35761007d565b80631192428a14610082578063131ed6c31461014457806329b8f44a1461017e575b600080fd5b6101426004803603604081101561009857600080fd5b81019080803590602001906401000000008111156100b557600080fd5b8201836020820111156100c757600080fd5b803590602001918460208302840111640100000000831117156100e957600080fd5b919080806020026020016040519081016040528093929190818152602001838360200280828437600081840152601f19601f8201169050808301925050505050505091929192908035906020019092919050505061037e565b005b61017c6004803603604081101561015a57600080fd5b81019080803590602001909291908035151590602001909291905050506104e3565b005b6101aa6004803603602081101561019457600080fd5b81019080803590602001909291905050506105d7565b604051808060200184815260200183151515158152602001828103825285818151815260200191508051906020019060200280838360005b838110156101fd5780820151818401526020810190506101e2565b5050505090500194505050505060405180910390f35b61021b61074b565b6040518082815260200191505060405180910390f35b6102676004803603604081101561024757600080fd5b810190808035906020019092919080359060200190929190505050610755565b005b6102716108b9565b604051808273ffffffffffffffffffffffffffffffffffffffff1673ffffffffffffffffffffffffffffffffffffffff16815260200191505060405180910390f35b6102df600480360360208110156102c957600080fd5b81019080803590602001909291905050506108de565b604051808060200180602001838103835285818151815260200191508051906020019060200280838360005b8381101561032657808201518184015260208101905061030b565b50505050905001838103825284818151815260200191508051906020019060200280838360005b8381101561036857808201518184015260208101905061034d565b5050505090500194505050505060405180910390f35b6000809054906101000a900473ffffffffffffffffffffffffffffffffffffffff1673ffffffffffffffffffffffffffffffffffffffff163373ffffffffffffffffffffffffffffffffffffffff1614610440576040517f08c379a000000000000000000000000000000000000000000000000000000000815260040180806020018281038252601d8152602001807f74686973206d6574686f6420697320666f72206f776e6572206f6e6c7900000081525060200191505060405180910390fd5b610448610bc8565b82816000018190525081816020018181525050600181604001901515908115158152505080600360006002548152602001908152602001600020600082015181600001908051906020019061049e929190610bee565b506020820151816002015560408201518160030160006101000a81548160ff021916908315150217905550905050600260008154809291906001019190505550505050565b6000809054906101000a900473ffffffffffffffffffffffffffffffffffffffff1673ffffffffffffffffffffffffffffffffffffffff163373ffffffffffffffffffffffffffffffffffffffff16146105a5576040517f08c379a000000000000000000000000000000000000000000000000000000000815260040180806020018281038252601d8152602001807f74686973206d6574686f6420697320666f72206f776e6572206f6e6c7900000081525060200191505060405180910390fd5b806003600084815260200190815260200160002060030160006101000a81548160ff0219169083151502179055505050565b60606000806000809054906101000a900473ffffffffffffffffffffffffffffffffffffffff1673ffffffffffffffffffffffffffffffffffffffff163373ffffffffffffffffffffffffffffffffffffffff161461069e576040517f08c379a000000000000000000000000000000000000000000000000000000000815260040180806020018281038252601d8152602001807f74686973206d6574686f6420697320666f72206f776e6572206f6e6c7900000081525060200191505060405180910390fd5b600360008581526020019081526020016000206000018054806020026020016040519081016040528092919081815260200182805480156106fe57602002820191906000526020600020905b8154815260200190600101908083116106ea575b50505050509250600360008581526020019081526020016000206002015491506003600085815260200190815260200160002060030160009054906101000a900460ff1690509193909250565b6000600254905090565b6000600360008481526020019081526020016000209050600115158160030160009054906101000a900460ff161515146107f7576040517f08c379a00000000000000000000000000000000000000000000000000000000081526004018080602001828103825260148152602001807f74686520706f6c6c206973206e6f74206f70656e00000000000000000000000081525060200191505060405180910390fd5b6108018383610aca565b610873576040517f08c379a00000000000000000000000000000000000000000000000000000000081526004018080602001828103825260168152602001807f696e76616c69642063616e646964617465206e616d650000000000000000000081525060200191505060405180910390fd5b600181600101600084815260200190815260200160002060008282829054906101000a900460ff160192506101000a81548160ff021916908360ff160217905550505050565b6000809054906101000a900473ffffffffffffffffffffffffffffffffffffffff1681565b6060806000809054906101000a900473ffffffffffffffffffffffffffffffffffffffff1673ffffffffffffffffffffffffffffffffffffffff163373ffffffffffffffffffffffffffffffffffffffff16146109a3576040517f08c379a000000000000000000000000000000000000000000000000000000000815260040180806020018281038252601d8152602001807f74686973206d6574686f6420697320666f72206f776e6572206f6e6c7900000081525060200191505060405180910390fd5b600060036000858152602001908152602001600020905080600001805490506040519080825280602002602001820160405280156109f05781602001602082028038833980820191505090505b50915060005b8160000180549050811015610a6e57816001016000836000018381548110610a1a57fe5b9060005260206000200154815260200190815260200160002060009054906101000a900460ff16838281518110610a4d57fe5b602002602001019060ff16908160ff168152505080806001019150506109f6565b5080600001805480602002602001604051908101604052809291908181526020018280548015610abd57602002820191906000526020600020905b815481526020019060010190808311610aa9575b5050505050925050915091565b6000610ad4610bc8565b6003600085815260200190815260200160002060405180606001604052908160008201805480602002602001604051908101604052809291908181526020018280548015610b4157602002820191906000526020600020905b815481526020019060010190808311610b2d575b50505050508152602001600282015481526020016003820160009054906101000a900460ff161515151581525050905060008090505b816000015151811015610bbb578382600001518281518110610b9557fe5b60200260200101511415610bae57600192505050610bc2565b8080600101915050610b77565b5060009150505b92915050565b604051806060016040528060608152602001600080191681526020016000151581525090565b828054828255906000526020600020908101928215610c2a579160200282015b82811115610c29578251825591602001919060010190610c0e565b5b509050610c379190610c3b565b5090565b610c5d91905b80821115610c59576000816000905550600101610c41565b5090565b9056fea265627a7a72315820f8cef37d53895d1460df649b43e7ef59f0e4c2f601c5688444260b1a75e05a7264736f6c63430005100032",
  "source": "// SPDX-License-Identifier: MIT\r\npragma solidity >=0.4.22 <0.9.0;\r\n\r\ncontract Poll {\r\n    struct PollInfo {\r\n        bytes32[] candidates;\r\n        mapping(bytes32 => uint8) counts;\r\n        bytes32 content;\r\n        bool open;\r\n    }\r\n    address public owner;\r\n    uint256 private _head;\r\n    uint256 private _tail;\r\n    mapping(uint256 => PollInfo) _polls;\r\n\r\n    constructor() public {\r\n        owner = msg.sender;\r\n        _head = 0;\r\n        _tail = 0;\r\n    }\r\n\r\n    function vote(uint256 poll, bytes32 name) public {\r\n        PollInfo storage p = _polls[poll];\r\n        require(p.open == true, \"the poll is not open\");\r\n        require(checkCandidate(poll, name), \"invalid candidate name\");\r\n        p.counts[name] += 1;\r\n    } // 유저가 vote 하는 함수\r\n\r\n    function makePoll(bytes32[] memory candidates, bytes32 content) public {\r\n        require(msg.sender == owner, \"this method is for owner only\");\r\n        PollInfo memory p;\r\n        p.candidates = candidates;\r\n        p.content = content;\r\n        p.open = true;\r\n        _polls[_tail] = p;\r\n        _tail++;\r\n    } // 새로운 여론조사를 만드는 함수\r\n\r\n    function setPollStatus(uint256 poll, bool open) public {\r\n        require(msg.sender == owner, \"this method is for owner only\");\r\n        _polls[poll].open = open;\r\n    } // 특정 조사의 상태를 변환하는 함수\r\n\r\n    function getResult(uint256 poll)\r\n        public\r\n        view\r\n        returns (bytes32[] memory candidates, uint8[] memory result)\r\n    {\r\n        require(msg.sender == owner, \"this method is for owner only\");\r\n        PollInfo storage p = _polls[poll];\r\n        result = new uint8[](p.candidates.length);\r\n        for (uint256 i; i < p.candidates.length; i++) {\r\n            result[i] = p.counts[p.candidates[i]];\r\n        }\r\n        candidates = p.candidates;\r\n    } // 여론조사 리스트를 가져오는 함수\r\n\r\n    function getPollInfo(uint256 poll)\r\n        public\r\n        view\r\n        returns (\r\n            bytes32[] memory candidates,\r\n            bytes32 content,\r\n            bool open\r\n        )\r\n    {\r\n        require(msg.sender == owner, \"this method is for owner only\");\r\n        candidates = _polls[poll].candidates;\r\n        content = _polls[poll].content;\r\n        open = _polls[poll].open;\r\n    } // 여론조사 정보를 가져오는 함수\r\n\r\n    function checkCandidate(uint256 poll, bytes32 name)\r\n        internal\r\n        view\r\n        returns (bool)\r\n    {\r\n        PollInfo memory p = _polls[poll];\r\n        for (uint256 i = 0; i < p.candidates.length; i++) {\r\n            if (p.candidates[i] == name) return true;\r\n        }\r\n        return false;\r\n    }\r\n\r\n    function getPollNumber() public view returns (uint256) {\r\n        return _tail;\r\n    }\r\n}\r\n",
  "sourcePath": "C:\\Users\\hayman42\\Desktop\\projects\\blockchain\\poll\\contract\\contracts\\Poll.sol",
  "compiler": {
    "name": "solc",
    "version": "0.5.16+commit.9c3226ce.Emscripten.clang"
  },
  "schemaVersion": "3.4.3",
  "updatedAt": "2021-10-03T05:36:13.542Z",
  "networkType": "ethereum",
  "devdoc": {
    "methods": {}
  },
  "userdoc": {
    "methods": {}
  }
}