{
  "contractName": "Poll",
  "abi": [
    {
      "inputs": [],
      "payable": false,
      "stateMutability": "nonpayable",
      "type": "constructor"
    },
    {
      "constant": true,
      "inputs": [],
      "name": "owner",
      "outputs": [
        {
          "internalType": "address",
          "name": "",
          "type": "address"
        }
      ],
      "payable": false,
      "stateMutability": "view",
      "type": "function"
    },
    {
      "constant": false,
      "inputs": [
        {
          "internalType": "uint256",
          "name": "poll",
          "type": "uint256"
        },
        {
          "internalType": "bytes32",
          "name": "name",
          "type": "bytes32"
        }
      ],
      "name": "vote",
      "outputs": [],
      "payable": false,
      "stateMutability": "nonpayable",
      "type": "function"
    },
    {
      "constant": false,
      "inputs": [
        {
          "internalType": "bytes32[]",
          "name": "candidates",
          "type": "bytes32[]"
        }
      ],
      "name": "makePoll",
      "outputs": [],
      "payable": false,
      "stateMutability": "nonpayable",
      "type": "function"
    },
    {
      "constant": false,
      "inputs": [
        {
          "internalType": "uint256",
          "name": "poll",
          "type": "uint256"
        }
      ],
      "name": "closePoll",
      "outputs": [],
      "payable": false,
      "stateMutability": "nonpayable",
      "type": "function"
    },
    {
      "constant": true,
      "inputs": [
        {
          "internalType": "uint256",
          "name": "poll",
          "type": "uint256"
        }
      ],
      "name": "getResult",
      "outputs": [
        {
          "internalType": "bytes32[]",
          "name": "candidates",
          "type": "bytes32[]"
        },
        {
          "internalType": "uint8[]",
          "name": "result",
          "type": "uint8[]"
        }
      ],
      "payable": false,
      "stateMutability": "view",
      "type": "function"
    },
    {
      "constant": true,
      "inputs": [
        {
          "internalType": "uint256",
          "name": "poll",
          "type": "uint256"
        }
      ],
      "name": "getPollInfo",
      "outputs": [
        {
          "internalType": "bytes32[]",
          "name": "candidates",
          "type": "bytes32[]"
        },
        {
          "internalType": "bool",
          "name": "open",
          "type": "bool"
        }
      ],
      "payable": false,
      "stateMutability": "view",
      "type": "function"
    },
    {
      "constant": true,
      "inputs": [],
      "name": "getPollNumber",
      "outputs": [
        {
          "internalType": "uint256",
          "name": "",
          "type": "uint256"
        }
      ],
      "payable": false,
      "stateMutability": "view",
      "type": "function"
    }
  ],
  "bytecode": "0x608060405234801561001057600080fd5b50336000806101000a81548173ffffffffffffffffffffffffffffffffffffffff021916908373ffffffffffffffffffffffffffffffffffffffff16021790555060006001819055506000600281905550610c33806100706000396000f3fe608060405234801561001057600080fd5b506004361061007d5760003560e01c80638da5cb5b1161005b5780638da5cb5b146101665780639534e637146101b0578063995e4339146101de578063d4821351146102a95761007d565b806329b8f44a1461008257806335c57b911461011057806368bb8bb61461012e575b600080fd5b6100ae6004803603602081101561009857600080fd5b8101908080359060200190929190505050610361565b604051808060200183151515158152602001828103825284818151815260200191508051906020019060200280838360005b838110156100fb5780820151818401526020810190506100e0565b50505050905001935050505060405180910390f35b6101186104b9565b6040518082815260200191505060405180910390f35b6101646004803603604081101561014457600080fd5b8101908080359060200190929190803590602001909291905050506104c3565b005b61016e610627565b604051808273ffffffffffffffffffffffffffffffffffffffff1673ffffffffffffffffffffffffffffffffffffffff16815260200191505060405180910390f35b6101dc600480360360208110156101c657600080fd5b810190808035906020019092919050505061064c565b005b61020a600480360360208110156101f457600080fd5b8101908080359060200190929190505050610740565b604051808060200180602001838103835285818151815260200191508051906020019060200280838360005b83811015610251578082015181840152602081019050610236565b50505050905001838103825284818151815260200191508051906020019060200280838360005b83811015610293578082015181840152602081019050610278565b5050505090500194505050505060405180910390f35b61035f600480360360208110156102bf57600080fd5b81019080803590602001906401000000008111156102dc57600080fd5b8201836020820111156102ee57600080fd5b8035906020019184602083028401116401000000008311171561031057600080fd5b919080806020026020016040519081016040528093929190818152602001838360200280828437600081840152601f19601f82011690508083019250505050505050919291929050505061092c565b005b606060008060009054906101000a900473ffffffffffffffffffffffffffffffffffffffff1673ffffffffffffffffffffffffffffffffffffffff163373ffffffffffffffffffffffffffffffffffffffff1614610427576040517f08c379a000000000000000000000000000000000000000000000000000000000815260040180806020018281038252601d8152602001807f74686973206d6574686f6420697320666f72206f776e6572206f6e6c7900000081525060200191505060405180910390fd5b6003600084815260200190815260200160002060000180548060200260200160405190810160405280929190818152602001828054801561048757602002820191906000526020600020905b815481526020019060010190808311610473575b505050505091506003600084815260200190815260200160002060020160009054906101000a900460ff169050915091565b6000600254905090565b6000600360008481526020019081526020016000209050600115158160020160009054906101000a900460ff16151514610565576040517f08c379a00000000000000000000000000000000000000000000000000000000081526004018080602001828103825260148152602001807f74686520706f6c6c206973206e6f74206f70656e00000000000000000000000081525060200191505060405180910390fd5b61056f8383610a7c565b6105e1576040517f08c379a00000000000000000000000000000000000000000000000000000000081526004018080602001828103825260168152602001807f696e76616c69642063616e646964617465206e616d650000000000000000000081525060200191505060405180910390fd5b600181600101600084815260200190815260200160002060008282829054906101000a900460ff160192506101000a81548160ff021916908360ff160217905550505050565b6000809054906101000a900473ffffffffffffffffffffffffffffffffffffffff1681565b6000809054906101000a900473ffffffffffffffffffffffffffffffffffffffff1673ffffffffffffffffffffffffffffffffffffffff163373ffffffffffffffffffffffffffffffffffffffff161461070e576040517f08c379a000000000000000000000000000000000000000000000000000000000815260040180806020018281038252601d8152602001807f74686973206d6574686f6420697320666f72206f776e6572206f6e6c7900000081525060200191505060405180910390fd5b60006003600083815260200190815260200160002060020160006101000a81548160ff02191690831515021790555050565b6060806000809054906101000a900473ffffffffffffffffffffffffffffffffffffffff1673ffffffffffffffffffffffffffffffffffffffff163373ffffffffffffffffffffffffffffffffffffffff1614610805576040517f08c379a000000000000000000000000000000000000000000000000000000000815260040180806020018281038252601d8152602001807f74686973206d6574686f6420697320666f72206f776e6572206f6e6c7900000081525060200191505060405180910390fd5b600060036000858152602001908152602001600020905080600001805490506040519080825280602002602001820160405280156108525781602001602082028038833980820191505090505b50915060005b81600001805490508110156108d05781600101600083600001838154811061087c57fe5b9060005260206000200154815260200190815260200160002060009054906101000a900460ff168382815181106108af57fe5b602002602001019060ff16908160ff16815250508080600101915050610858565b508060000180548060200260200160405190810160405280929190818152602001828054801561091f57602002820191906000526020600020905b81548152602001906001019080831161090b575b5050505050925050915091565b6000809054906101000a900473ffffffffffffffffffffffffffffffffffffffff1673ffffffffffffffffffffffffffffffffffffffff163373ffffffffffffffffffffffffffffffffffffffff16146109ee576040517f08c379a000000000000000000000000000000000000000000000000000000000815260040180806020018281038252601d8152602001807f74686973206d6574686f6420697320666f72206f776e6572206f6e6c7900000081525060200191505060405180910390fd5b6109f6610b70565b8181600001819052506001816020019015159081151581525050806003600060025481526020019081526020016000206000820151816000019080519060200190610a42929190610b8c565b5060208201518160020160006101000a81548160ff0219169083151502179055509050506002600081548092919060010191905055505050565b6000610a86610b70565b6003600085815260200190815260200160002060405180604001604052908160008201805480602002602001604051908101604052809291908181526020018280548015610af357602002820191906000526020600020905b815481526020019060010190808311610adf575b505050505081526020016002820160009054906101000a900460ff161515151581525050905060008090505b816000015151811015610b63578382600001518281518110610b3d57fe5b60200260200101511415610b5657600192505050610b6a565b8080600101915050610b1f565b5060009150505b92915050565b6040518060400160405280606081526020016000151581525090565b828054828255906000526020600020908101928215610bc8579160200282015b82811115610bc7578251825591602001919060010190610bac565b5b509050610bd59190610bd9565b5090565b610bfb91905b80821115610bf7576000816000905550600101610bdf565b5090565b9056fea265627a7a72315820a7ccfeba21281a2f6a66bbb265ee85a9802bb705072cac93c4f7fa3314673a3764736f6c63430005100032",
  "source": "// SPDX-License-Identifier: MIT\r\npragma solidity >=0.4.22 <0.9.0;\r\n\r\ncontract Poll {\r\n    struct PollInfo {\r\n        bytes32[] candidates;\r\n        mapping(bytes32 => uint8) counts;\r\n        bool open;\r\n    }\r\n    address public owner;\r\n    uint256 private _head;\r\n    uint256 private _tail;\r\n    mapping(uint256 => PollInfo) _polls;\r\n\r\n    constructor() public {\r\n        owner = msg.sender;\r\n        _head = 0;\r\n        _tail = 0;\r\n    }\r\n\r\n    function vote(uint256 poll, bytes32 name) public {\r\n        PollInfo storage p = _polls[poll];\r\n        require(p.open == true, \"the poll is not open\");\r\n        require(checkCandidate(poll, name), \"invalid candidate name\");\r\n        p.counts[name] += 1;\r\n    } // 유저가 vote 하는 함수\r\n\r\n    function makePoll(bytes32[] memory candidates) public {\r\n        require(msg.sender == owner, \"this method is for owner only\");\r\n        PollInfo memory p;\r\n        p.candidates = candidates;\r\n        p.open = true;\r\n        _polls[_tail] = p;\r\n        _tail++;\r\n    } // 새로운 여론조사를 만드는 함수\r\n\r\n    function closePoll(uint256 poll) public {\r\n        require(msg.sender == owner, \"this method is for owner only\");\r\n        _polls[poll].open = false;\r\n    } // 특정 조사를 close 하는 함수\r\n\r\n    function getResult(uint256 poll)\r\n        public\r\n        view\r\n        returns (bytes32[] memory candidates, uint8[] memory result)\r\n    {\r\n        require(msg.sender == owner, \"this method is for owner only\");\r\n        PollInfo storage p = _polls[poll];\r\n        result = new uint8[](p.candidates.length);\r\n        for (uint256 i; i < p.candidates.length; i++) {\r\n            result[i] = p.counts[p.candidates[i]];\r\n        }\r\n        candidates = p.candidates;\r\n    } // 여론조사 리스트를 가져오는 함수\r\n\r\n    function getPollInfo(uint256 poll)\r\n        public\r\n        view\r\n        returns (bytes32[] memory candidates, bool open)\r\n    {\r\n        require(msg.sender == owner, \"this method is for owner only\");\r\n        candidates = _polls[poll].candidates;\r\n        open = _polls[poll].open;\r\n    } // 여론조사 정보를 가져오는 함수\r\n\r\n    function checkCandidate(uint256 poll, bytes32 name)\r\n        internal\r\n        view\r\n        returns (bool)\r\n    {\r\n        PollInfo memory p = _polls[poll];\r\n        for (uint256 i = 0; i < p.candidates.length; i++) {\r\n            if (p.candidates[i] == name) return true;\r\n        }\r\n        return false;\r\n    }\r\n\r\n    function getPollNumber() public view returns (uint256) {\r\n        return _tail;\r\n    }\r\n}\r\n",
  "sourcePath": "C:\\Users\\hayman42\\Desktop\\projects\\blockchain\\poll\\contract\\contracts\\Poll.sol",
  "compiler": {
    "name": "solc",
    "version": "0.5.16+commit.9c3226ce.Emscripten.clang"
  },
  "schemaVersion": "3.4.3",
  "updatedAt": "2021-09-25T12:51:09.699Z",
  "networkType": "ethereum",
  "devdoc": {
    "methods": {}
  },
  "userdoc": {
    "methods": {}
  }
}